:020000040800F2
:1000000000280020B90200080903000809030008BD
:1000100009030008090300080903000800000000A4
:1000200000000000000000000000000009030008BC
:100030000903000800000000090300080903000884
:100040000903000809030008090300080903000860
:100050000903000809030008090300080903000850
:100060000903000809030008090300080903000840
:100070000903000809030008090300080903000830
:100080000903000809030008090300080903000820
:100090000903000809030008090300080903000810
:1000A0000903000809030008090300080903000800
:1000B00009030008090300080903000809030008F0
:1000C00009030008090300080903000809030008E0
:1000D00009030008090300080903000809030008D0
:1000E00009030008090300080000000009030008D4
:1000F00009030008090300080903000809030008B0
:10010000090300080903000809030008090300089F
:10011000090300080903000809030008090300088F
:10012000090300080903000809030008090300087F
:1001300010B5054C237833B9044B13B10448AFF321
:1001400000800123237010BD00000020000000008B
:100150005403000808B5034B1BB103490348AFF330
:10016000008008BD000000000400002054030008C7
:1001700080B400AF074B1B68064A43F004031360CA
:10018000044B1B68034A43F00803136000BFBD46DD
:1001900080BC70471810024080B400AF1F4B002293
:1001A0001A601F4B00221A601E4B00221A601C4B63
:1001B0001B681B4A23F030031360194B1B68184A55
:1001C00043F040031360184B00221A60164B1B6863
:1001D000154A43F010031360134B1B68124A23F0B7
:1001E000C00313600D4B1B680C4A23F440131360CB
:1001F0000A4B1B68094A43F4800313600B4B1B68CE
:100200000A4A43F480131360084B1B68074A23F41F
:100210004003136000BFBD4680BC70470408014026
:10022000000801400C080140000C0140040C014092
:1002300080B485B000AF78600023FB6002E0FB680B
:100240000133FB60FA687B689A42F8DB00BF143721
:10025000BD4680BC7047000080B500AFFFF788FF47
:10026000FFF79AFF124B1B6803F00203002B0CD11F
:10027000104B1B680F4A83F00203136000BF0C4B46
:100280001B6803F00203002BF9D0094B1B685B0BC2
:1002900003F00103012B05D1064B1B68054A83F4CB
:1002A000005313604FF47A70FFF7C2FFDAE700BF24
:1002B000080801400C0C01400D488546AFF3008052
:1002C0000C480D490D4A002302E0D458C4500433B1
:1002D000C4188C42F9D30A4A0A4C002301E0136087
:1002E0000432A242FBD300F011F8FFF7B5FFFEE79E
:1002F00000280020000000200000002074030008F7
:10030000000000201C000020FEE7000070B5002562
:100310000C4E0D4CA41BA410A54209D100F01AF8F4
:1003200000250A4E0A4CA41BA410A54205D170BD9D
:1003300056F8253098470135EEE756F825309847AE
:100340000135F2E76C0300086C0300086C03000839
:1003500070030008F8B500BFF8BC08BC9E467047A3
:0C036000F8B500BFF8BC08BC9E46704712
:04036C00550100082F
:04037000310100084F
:04000005080002B934
:00000001FF
