:100000000C942A000C943F000C943F000C943F0089
:100010000C943F000C943F000C943F000C943F0064
:100020000C943F000C943F000C943F000C943F0054
:100030000C943F000C943F000C943F000C943F0044
:100040000C943F000C943F000C943F000C943F0034
:100050000C943F0011241FBECFE5D8E0DEBFCDBF1A
:1000600010E0A0E6B0E0E6E4F2E002C005900D92F8
:10007000A836B107D9F70E94ED000C9421010C9429
:10008000000088B3886088BB83ED90E30197F1F7A7
:1000900000C0000088B3877F88BB08958AB31ABA6E
:1000A00088B3846088BB88B38D7F88BB0E94410081
:1000B0008AB38FEF8ABB88B38B7F88BB0895CF93B9
:1000C000C82F0E944E00CBBB88B3897F88BB89EFC5
:1000D00090E00197F1F700C000000E944100CF912D
:1000E000089581E00E945F000895CF93DF93C82FA9
:1000F000D62F813031F4603120F480E8860F0E94E1
:100100005F00C23031F4D03120F480EC8D0F0E94BA
:100110005F00DF91CF91089587E893E10197F1F7B0
:1001200000C0000087B38E6087BB88B3817F88BB27
:100130008FEF8ABB85EA9EE00197F1F700C00000CF
:100140000E94710088E30E945F0086E00E945F00C9
:1001500080E80E945F008FE00E945F000895CF93C7
:10016000C82F0E944E00CBBB88B38B7F88BB88B35F
:10017000826088BB89EF90E00197F1F700C0000032
:100180000E944100CF9108950F931F93CF93DF9367
:100190008C01C0E0D0E018C021960F5F1F4F0E9475
:1001A000AF00C031D10529F460E082E00E94750003
:1001B0000BC0C032D10541F40E94710060E081E0C3
:1001C0000E947500C0E0D0E0F80180818111E4CF89
:1001D000DF91CF911F910F9108950E948C000E9492
:1001E0000C0183ED90E30197F1F700C0000080E679
:1001F00090E00E94C40088E490E00E9418018FE41F
:1002000090E00E94180160E082E00E9475000E9468
:100210001C010E94AF00F7CF83E389B98BB18D7FBA
:100220008BB98AB188608AB98AB180618AB9089528
:100230005D9BFECF8CB908955F9BFECF8CB190E0A3
:060240000895F894FFCFC1
:080246005541525420545200AE
:00000001FF
