S0180000756E6974375F4C6573736F6E314173732E73726563EA
S11300000C942A000C9434000C9434000C943400A6
S11300100C9434000C9434000C9434000C9434008C
S11300200C9434000C9434000C9434000C9434007C
S11300300C9434000C9434000C9434000C9434006C
S11300400C9434000C9434000C9434000C9434005C
S11300500C94340011241FBECFE5D8E0DEBFCDBF21
S11300600E9443000C9494000C94000081B38062BD
S113007081BB81B3806481BB81B3806881BB81B360
S1130080806181BB08950E94360082B3806282BB86
S11300902FEF89E698E1215080409040E1F700C0BD
S11300A0000082B38F7D82BB82B3806482BB2FEF5A
S11300B089E698E1215080409040E1F700C00000BB
S11300C082B38F7B82BB82B3806882BB2FEF89E6C9
S11300D098E1215080409040E1F700C0000082B3D5
S11300E08F7782BB2FEF89E698E1215080409040C2
S11300F0E1F700C0000082B3806182BB2FEF89E684
S113010098E1215080409040E1F700C0000082B3A4
S11301108F7E82BB2FEF89E698E12150804090408A
S10F0120E1F700C00000B1CFF894FFCF5D
S9030000FC
